:020000040800F2
:10000000C88F00204D030008618A0008638A000839
:10001000678A00086B8A00086F8A000800000000E9
:10002000000000000000000000000000738A0008CB
:10003000758A000800000000778A0008798A0008A5
:1000400067030008670300086703000867030008E8
:1000500067030008670300086703000867030008D8
:1000600067030008670300086703000867030008C8
:1000700067030008670300086703000867030008B8
:1000800067030008670300086703000867030008A8
:100090006703000867030008670300086703000898
:1000A0006703000867030008670300086703000888
:1000B000152F00080B8700081B2D00086703000898
:1000C0006703000867030008670300086703000868
:1000D00067030008638900086703000867030008D6
:1000E0006703000867030008670300086703000848
:1000F0006703000867030008670300086703000838
:100100006703000867030008670300086703000827
:100110006703000867030008670300086703000817
:100120006703000867030008670300086703000807
:1001300067030008670300086703000867030008F7
:1001400067030008670300086703000867030008E7
:1001500067030008670300086703000867030008D7
:1001600067030008670300086703000867030008C7
:1001700067030008670300086703000867030008B7
:10018000670300086703000800F002F800F0B4F805
:100190000AA090E8000C82448344AAF10107DA45E2
:1001A00001D100F0A9F8AFF2090EBAE80F0013F080
:1001B000010F18BFFB1A43F0010318472019020072
:1001C000401902000A444FF0000C10F8013B13F0F4
:1001D000070408BF10F8014B1D1108BF10F8015BA0
:1001E000641E05D010F8016B641E01F8016BF9D193
:1001F00013F0080F1EBF10F8014BAD1C0C1B09D1EA
:100200006D1E58BF01F801CBFAD505E014F8016B5B
:1002100001F8016B6D1EF9D59142D6D370470000ED
:100220000023002400250026103A28BF78C1FBD8FF
:10023000520728BF30C148BF0B6070476E290DF0D0
:10024000F58670290DF09784662910F014846529CD
:1002500010F01184672910F00E84612910F00D84CC
:1002600003681B0A28BF41F0800169290DF008844A
:1002700064290DF0058475290DF002846F290EF0B4
:10028000FC8178290DF06384E9290EF09781E42937
:100290000EF09481F5290EF09181EF290EF0F9818D
:1002A000F8290DF062840368DB0928BF41F0800162
:1002B00063290EF0068173290EF00B81E3290EF0FD
:1002C0000984F3290EF00E84002070471FB510F04A
:1002D000C8FB0DF034FD0EF0E7F90400002000210A
:1002E0000FF022FE401C6060002000210FF006FE8F
:1002F000E0601FBD10B510BD0EF092FC1146FFF777
:10030000E5FF08F073FB0EF0B9FC03B4FFF7F2FF52
:1003100003BC08F0C7FA00000B49D1F800C04A68D6
:100320005CF8043B1068184442F8040B8C4528BF65
:10033000A1F1DC0C8A4228BFA1F1DC02C1F800C0A7
:100340004A6020F0004070475C89002009488047DF
:1003500009480047FEE7FEE7FEE7FEE7FEE7FEE7A7
:10036000FEE7FEE7FEE7FEE704480549054A064BBF
:1003700070470000078B000889010008C889002029
:10038000C88F0020C88B0020C88B00203249014351
:10039000324A1160704770B5002100230F22C478E3
:1003A0001CB32E4C246804F4E064C4F5E064C4F388
:1003B0000721C1F10404E3B20A4144789C40E1B250
:1003C0008478144021430C07210E254C0578615593
:1003D000047804F01F050124AC4005786D11AD00D0
:1003E00005F1E025C5F8004109E0047804F01F0597
:1003F0000124AC401B4D0678761145F8264070BDAF
:10040000194A0A400243154B1B1F1A60704739B145
:10041000124A121D12680243104B1B1D1A6006E09F
:100420000E4A121D126882430C4B1B1D1A60704746
:10043000042808D14FF0E021096941F004014FF090
:10044000E022116107E04FF0E021096921F0040189
:100450004FF0E022116170470000FA050CED00E05A
:1004600000E400E080E100E080FFFF1F10B50446DB
:100470009848844208D10121084600F088FB0021F9
:10048000012000F084FB76E09348844208D10121EA
:10049000022000F07CFB0021022000F078FB6AE0E3
:1004A0008E48844208D10121042000F070FB002115
:1004B000042000F06CFB5EE08948844208D10121F1
:1004C000082000F064FB0021082000F060FB52E0EF
:1004D0008448844208D10121102000F058FB0021FB
:1004E000102000F054FB46E07F48844208D10121EF
:1004F000202000F04CFB0021202000F048FB3AE0D7
:100500007A48844208D10121402000F040FB0021BC
:10051000402000F03CFB2EE07548844208D10121C8
:10052000802000F034FB0021802000F030FB22E02E
:100530007048844208D10121801500F028FB002179
:10054000A01500F024FB16E06B48844208D101217D
:10055000401500F01CFB0021601500F018FB0AE0BC
:100560006648844207D10121001500F010FB0021EC
:10057000201500F00CFB10BDF0B50A460021002349
:10058000002400BF3DE0012505FA01F3156805EAE6
:1005900003049C4234D105684F000326BE40B54396
:1005A000056015794E00B54006683543056015793C
:1005B000012D02D01579022D16D185684F00032632
:1005C000BE40B543856055794E00B54086683543D9
:1005D0008560456801268E40B5434560456896793B
:1005E0008E40B6B235434560C5684F000326BE4015
:1005F000B543C560D5794E00B540C6683543C56082
:10060000491C1029BFD3F0BD4FF6FF7101600021D6
:10061000017141718171C171704708B54FF4803229
:100620000092009A0A430092009AC261C161009A46
:10063000C261C2690092C269009208BD02460020F0
:1006400013690B400BB1012000E000207047014608
:10065000086980B270470246002053690B400BB115
:10066000012000E0002070470146486980B27047D1
:1006700001837047418370470AB1018300E04183E1
:1006800070474161704742694A4042617047F0B526
:10069000002300244D07ED0E02FA05F3CE1000F101
:1006A000200555F826504E07F70E0F26BE40B543DD
:1006B000CF1000F1200646F82750CE1000F120059B
:1006C00055F8265045EA0304CE1000F1200545F800
:1006D0002640F0BD00000240000402400008024035
:1006E000000C0240001002400014024000180240BA
:1006F000001C02400020024000240240002802406A
:10070000FA48006840F00100F84908600020F74905
:1007100008310860F5480068F5490840F349086069
:10072000F448091D0860F448F04984310860F14834
:100730001038091D0860ED48006820F48020EB495E
:1007400008600020E9490C310860E8498C310860F4
:1007500070470021E54A921C1170114608707047DD
:1007600010B501460022002300204A11012A02D1BF
:10077000DE4C236808E0022A03D1DC4C7034236885
:1007800002E0DA4C7434236801F01F020124944023
:100790001C400CB1012000E0002010BD38B5002045
:1007A00000900024002500BF3120FFF7D9FF054647
:1007B0000098401C00900098B0F5A04F01D0002D8B
:1007C000F2D03120FFF7CCFF08B1012400E0002473
:1007D000204638BD01460020C44A106820F0F800C9
:1007E00040EAC10010607047C449086070470021AA
:1007F000BE4A703211701170012802D004280AD14B
:1008000004E00121B94A7032117005E00521B74AB0
:100810007032117000E000BF00BF7047B849086037
:10082000704770B5049C41EA82150126C6EB530659
:1008300045EA0645054345EA0465AC4E361D35607C
:1008400070BDAE490866704710B5830143EA017375
:100850001343A64C8434236010BDA84988667047B2
:1008600010B5830143EA016343EA02739F4C883465
:10087000236010BDA14908677047A049C86470474C
:1008800002460020994B0833186820F0EC6042EAD9
:1008900001031843954B0833186070470246002047
:1008A000924B0833186820F0784042EA010318435D
:1008B0008E4B083318607047014600208B4A08327F
:1008C000106820F003000843106070478748083024
:1008D000006800F00C00704701460020834A08328F
:1008E000106820F0F00008431060704701460020B7
:1008F0007E4A0832106820F4E050084310607047C8
:1009000001460020794A0832106820F4604040EA2D
:10091000C10010607047F0B50021002200240225BC
:1009200000260223714F08373F6807F00C0121B100
:10093000042905D0082937D105E0724F076036E059
:10094000714F076033E0694F3F1D3F68C7F3805622
:10095000664F3F1D3F6807F03F036EB16A4FB7FB1C
:10096000F3F7DFF888C10CF1040CDCF800C0CCF31D
:10097000881C07FB0CF40CE0624FB7FBF3F7DFF8C1
:100980006CC10CF1040CDCF800C0CCF3881C07FB34
:100990000CF4564F3F1D3F68C7F301477F1C7D0095
:1009A000B4FBF5F7076002E0564F076000BF00BFD9
:1009B0004E4F08373F6807F0F0010909534F7A5C42
:1009C0000768D7404760494F08373F6807F4E05150
:1009D000890A4E4F7A5C4768D7408760434F083793
:1009E0003F6807F46041490B484F7A5C4768D7403D
:1009F000C760F0BD002100F44072B2F5407F0AD11B
:100A00003A4A0832116821F4F811414A0240114370
:100A1000364A08321160354A70321268C0F30B034F
:100A20001A43324B70331A607047354944390860B5
:100A3000704733494039086070473649086070474D
:100A400001460020294A8C32106820F01F004A1EFF
:100A50001043264A8C321060704701460020234A1A
:100A60008C32106820F4F8504A1E40EA02201F4AD7
:100A70008C3210607047014600201C4A8C3210688E
:100A800020F4401008431060704701460020174AC8
:100A90008C32106820F44000084310607047014613
:100AA0000020124A8C32106820F440300843106055
:100AB000704719490860704739B10C4A30321268E2
:100AC00002430A4B30331A6006E0084A303212689B
:100AD0008243064B30331A607047F9B1034A34320F
:100AE00012680243014B34331A601CE000380240A4
:100AF000FFFFF6EA103000240030002000004742DB
:100B0000800E47420024F40040787D010000002060
:100B1000FFFCFF0F5C014742E01147428F4A126819
:100B200082438E4B1A60704739B18C4A121D12688D
:100B300002438A4B1B1D1A6006E0884A121D126888
:100B40008243864B1B1D1A60704739B1834A0C32B1
:100B500012680243814B0C331A6006E07F4A0C3264
:100B6000126882437D4B0C331A60704739B17B4A5F
:100B7000103212680243794B10331A6006E0774A4C
:100B8000103212688243754B10331A60704739B1C6
:100B9000724A243A12680243704B243B1A6006E002
:100BA0006E4A243A126882436C4B243B1A607047A9
:100BB00039B16A4A203A12680243684B203B1A60F6
:100BC00006E0664A203A12688243644B203B1A6072
:100BD000704739B1614A1C3A126802435F4B1C3BB3
:100BE0001A6006E05D4A1C3A126882435B4B1C3B6C
:100BF0001A60704739B1594A143A12680243574B88
:100C0000143B1A6006E0554A143A12688243534B6B
:100C1000143B1A60704739B1504A103A12680243C7
:100C20004E4B103B1A6006E04C4A103A1268824361
:100C30004A4B103B1A60704739B1484A1C3212685F
:100C40000243464B1C331A6006E0444A1C321268C9
:100C50008243424B1C331A60704739B13F4A2032FD
:100C6000126802433D4B20331A6006E03B4A2032B3
:100C700012688243394B20331A60704739B1374AC2
:100C8000243212680243354B24331A6006E0334A9B
:100C9000243212688243314B24331A60704739B1D1
:100CA0002E4A2C32126802432C4B2C331A6006E079
:100CB0002A4A2C3212688243284B2C331A60704720
:100CC00039B1264A303212680243244B30331A605D
:100CD00006E0224A303212688243204B30331A60D9
:100CE0007047012808D11D493C31096841F00801CD
:100CF0001A4A3C32116007E018493C31096821F07A
:100D00000801164A3C321160704739B1134A273A3C
:100D100012780243114B273B1A7006E00F4A273A1C
:100D2000127882430D4B273B1A7070470B484030B6
:100D3000006840F080700949403108607047014602
:100D40000020064A283A12680A400AB1012000E051
:100D50000020704701492639087070473438024036
:100D600010B50446FA48844208D101211020FFF74B
:100D700052FF00211020FFF74EFF57E0F548844254
:100D800009D101214804FFF735FF00214FF400305D
:100D9000FFF730FF4AE0F048844209D1012188047E
:100DA000FFF728FF00214FF48020FFF723FF3DE0ED
:100DB000EA48844209D10121C804FFF71BFF002142
:100DC0004FF40020FFF716FF30E0E548844209D1D8
:100DD00001210805FFF70EFF00214FF48010FFF7F7
:100DE00009FF23E0DF48844208D101212020FFF7DA
:100DF00012FF00212020FFF70EFF17E0DA4884429F
:100E000009D101218807FFF7F5FE00214FF080404E
:100E1000FFF7F0FE0AE0D548844207D101214005E2
:100E2000FFF7E8FE00216005FFF7E4FE10BD2DE9A5
:100E3000FF4705460E460024A14600BFA046B089E4
:100E400000B100BF2C8A24F44054F08804432C8263
:100E5000AC8941F20C608443B088318908437189C0
:100E600008430443AC81AC8A24F44074B089044341
:100E7000AC826846FFF74FFDB548854202D0B948BD
:100E8000854202D1DDF80C9001E0DDF80890A889D8
:100E900000F4004040B109EBC90000EB09103168D3
:100EA0004900B0FBF1F707E009EBC90000EB0910BE
:100EB00031688900B0FBF1F76420B7FBF0F0040162
:100EC0002009642101FB1078A88900F4004040B19A
:100ED000322000EBC800B0FBF1F000F00700044343
:100EE00008E0322000EB08106421B0FBF1F000F0C4
:100EF0000F0004432C81BDE8FF874FF416510160B9
:100F000000218180C18001810C21418100218181EA
:100F1000704710B502460020108A20F470600B88DC
:100F20004C8823438C882343CC8823431843108266
:100F300010BD0021018041808180C180704721B1B6
:100F4000828942F40052828104E082894DF6FF7367
:100F50001A4082817047028B02F47F420283028B27
:100F60000A430283704721B1828942F400428281A0
:100F700003E08289C2F30E028281704721B1828A26
:100F800042F40062828204E0828A4FF2FF731A40C8
:100F900082827047C1F308028280704701468888C8
:100FA000C0F308007047028A4FF6F0731A400282BD
:100FB000028A0A430282704721B1828942F002020A
:100FC000828104E082894FF6FD731A408281704766
:100FD00082894FF2FF731A40828182890A4382819B
:100FE0007047028A4FF6DF731A400282028A0A4370
:100FF0000282704721B1028A42F48042028204E0F8
:10100000028A4BF6FF731A4002827047818941F0D1
:1010100001018181704721B1828A42F008028282F7
:1010200004E0828A4FF6F7731A4082827047028B7F
:10103000D2B20283028B42EA01220283704721B1BD
:10104000828A42F02002828204E0828A4FF6DF73B5
:101050001A408282704721B1828A42F01002828255
:1010600004E0828A4FF6EF731A4082827047828AC8
:101070004FF6FB731A408282828A0A43828270474B
:1010800021B1828A42F00202828204E0828A4FF613
:10109000FD731A40828270471AB1838A0B438382A0
:1010A00002E0838A8B4383827047F0B503460024B5
:1010B00000260025002040F66A17B94200D100BF83
:1010C0001846C1F3421401F01F06012707FA06F57E
:1010D000012C01D10C3004E0022C01D1103000E0D1
:1010E00014301AB107682F43076002E00768AF4366
:1010F0000760F0BD02460020B1F5007F00D100BFBF
:1011000013880B400BB1012000E00020704701F470
:101110000072B2F5007F00D100BFCA430280704761
:1011200070B50246002400230025002040F66A1610
:10113000B14200D100BFC1F3421501F01F030126E7
:1011400006FA03F3012D13D19689334017E000000E
:10115000001001400044004000480040004C0040A6
:10116000005000400014014000780040007C004026
:10117000022D02D1168A334001E0968A33400C12C8
:10118000012606FA04F41688344013B10CB101208C
:1011900000E0002070BD10B50022002340F66A1464
:1011A000A14200D100BF0A1201249440A3B2DC4343
:1011B000048010BD10B50446F848844209D10121CD
:1011C0004805FFF717FD00214FF40010FFF712FD4F
:1011D00018E0F348844209D101218805FFF70AFD90
:1011E00000214FF48000FFF705FD0BE0ED4884423D
:1011F00008D10121C805FFF7FDFC00214FF40000D4
:10120000FFF7F8FC10BD2DE9FF4704460D46002608
:10121000B1460427DFF89083A6884FF6C0700640D9
:101220006846FFF778FBDDF80880E048B8FBF0F08F
:101230001FFA80F946EA0906A68020884FF6FE715B
:10124000084020800026DA49286888420CD828689F
:101250004000B8FBF0F087B2042F00DA04273E43C9
:1012600009F10100208427E0E8884BF6FF718842ED
:1012700006D1286800EB4000B8FBF0F087B209E027
:10128000286800EBC00101EB0010B8FBF0F087B25A
:1012900047F48047C7F30B0008B947F0010747F44C
:1012A000004006434FF4967009FB00F04FF47A714A
:1012B00090FBF1F0401C2084A683208840F00100C0
:1012C000208026884FF6F5300640A88869890843B3
:1012D00006432680A889298908432081BDE8FF8725
:1012E00041F288310160002181804BF6FF71C1809D
:1012F0000021018141814FF480418181704721B1FA
:10130000028842F00102028004E002884FF6FE7378
:101310001A400280704729B1828C4FF6EF731A4051
:10132000828403E0828C42F01002828470470A4675
:101330000021818C4FF6F073194002F00F0319431E
:101340008184704721B1028842F48072028004E0F7
:1013500002884FF6FF631A400280704721B102886D
:1013600042F40072028004E002884FF6FF531A40F4
:101370000280704712B141F0010101E001F0FE016D
:101380000182704721B1028842F48062028004E049
:1013900002884FF6FF331A40028070470A46002148
:1013A00081894FF60173194002F0FE0319438181D0
:1013B000704721B1828942F00102828104E0828972
:1013C0004FF6FE731A408281704721B1028842F0C5
:1013D0004002028004E002884FF6BF731A40028088
:1013E000704721B1028842F40042028003E0028883
:1013F000C2F30E020280704721B9028842F08002D7
:10140000028004E002884FF67F731A400280704722
:10141000B1F5804F05D0828B4BF6FF731A40828363
:1014200003E0828B42F4804282837047B1F5006F03
:1014300004D1028842F40062028004E002884FF284
:10144000FF731A4002807047B1F5005F04D1028833
:1014500042F40052028004E002884DF6FF731A4005
:101460000280704721B1028842F01002028004E03D
:1014700002884FF6EF731A4002807047018270476E
:101480000146088AC0B2704721B1028842F48052F6
:10149000028004E002884EF6FF731A400280704713
:1014A000B1F5006F04D1028842F40062028004E0CA
:1014B00002884FF2FF731A400280704721B1028800
:1014C00042F02002028004E002884FF6DF731A40E7
:1014D000028070470146088B0012704721B1828854
:1014E00042F40062828004E082884FF2FF731A4067
:1014F0008280704721B1828842F48052828004E069
:1015000082884EF6FF731A408280704708B5024603
:1015100000200090009200980844009000980088F5
:1015200008BD1AB183880B43838002E083888B4314
:101530008380704770B502460024002500230020F8
:10154000958A138B1B0445EA030626F07F4404EAC0
:1015500001068E4201D1012000E0002070BD10B5CF
:1015600001460020002300228B8A0A8B120443EAE2
:10157000020424F07F4010BD0CB502460020002379
:101580000193009300920B0F019321F07F41019B87
:1015900083B1009B1433009310E00000005400401E
:1015A00000580040005C004000127A0040420F00EA
:1015B000A0860100090C009B18330093009B1B6858
:1015C0000B400BB1012000E000200CBD002221F0F7
:1015D0007F42D3438382704730B502460020002308
:1015E000948801F0E06504EA154321F07F41948A74
:1015F0000C4014B10BB1012000E0002030BD0022EE
:1016000021F07F42D34383827047000010B5044627
:10161000FE48844208D101210846FFF7FCFA002168
:101620000120FFF7F8FA9DE0B4F1804F08D10121C5
:101630000846FFF7DFFA00210120FFF7DBFA91E00F
:10164000F348844208D101210220FFF7D3FA002198
:101650000220FFF7CFFA85E0EE48844208D101214D
:101660000420FFF7C7FA00210420FFF7C3FA79E04E
:10167000E948844208D101210820FFF7BBFA002184
:101680000820FFF7B7FA6DE0E448844208D1012151
:101690001020FFF7AFFA00211020FFF7ABFA61E04E
:1016A000DF48844208D101212020FFF7A3FA00215E
:1016B0002020FFF79FFA55E0DA48844208D1012143
:1016C0000220FFF7A8FA00210220FFF7A4FA49E060
:1016D000D548844209D101210804FFF79CFA002172
:1016E0004FF48030FFF797FA3CE0D048844209D1AC
:1016F00001214804FFF78FFA00214FF40030FFF773
:101700008AFA2FE0CA48844209D101218804FFF7F0
:1017100082FA00214FF48020FFF77DFA22E0C548CD
:10172000844208D101214020FFF764FA00214020C3
:10173000FFF760FA16E0C048844208D101218020FA
:10174000FFF758FA00218020FFF754FA0AE0BB485F
:10175000844207D101218015FFF74CFA0021A01522
:10176000FFF748FA10BD00220288A84B98420ED01D
:10177000AC4B98420BD0B0F1804F08D0A44B9842AC
:1017800005D0A44B984202D0A34B984204D14FF607
:101790008F731A404B881A43A04B984207D0A04B36
:1017A000984204D04FF6FF431A400B891A43028037
:1017B0004B68C3620B880385944B984202D0994BC7
:1017C000984201D18B7A03860123838270474FF0C0
:1017D000FF314160002101800181418081727047A9
:1017E0000185828270470A46002101884FF68F7377
:1017F000194011430180704741627047C1627047D0
:101800000146486A70470146088D704721B1028839
:1018100042F00202028004E002884FF6FD731A4093
:101820000280704721B1028842F00402028004E085
:1018300002884FF6FB731A400280704721B102887C
:1018400042F08002028004E002884FF67F731A4063
:101850000280704702884FF6F7731A4002800288B0
:101860000A430280704702884FF6FF431A40028005
:1018700002880A430280704721B1028842F00102C7
:10188000028004E002884FF6FE731A40028070471F
:1018900070B5002400220023058C4FF6FE763540FB
:1018A0000584028C8388048B4FF68F752C40B51EFF
:1018B0002C400D882C43751E2A408D892A434D8863
:1018C0002A43524DA84202D0564DA84213D14FF69A
:1018D000F7752A40CD892A434FF6FB752A408D883B
:1018E0002A434FF6FF652B404FF6FF552B400D8ADC
:1018F0002B434D8A2B43838004838D684563028488
:1019000070BD70B5002400220023058C4FF6EF76E1
:1019100035400584028C8388048B48F6FF752C4083
:101920004FF6FF452C400D884FF6FF7606EA052559
:101930002C434FF6DF752A408D8906EA05152A43A8
:101940004D8806EA05152A43304DA84202D0354D90
:10195000A8421DD14FF67F752A40CD894FF6FF76FC
:1019600006EA05152A434FF6BF752A408D8806EA18
:1019700005152A434FF6FF352B404FF2FF752B40DC
:101980000D8A06EA85052B434D8A06EA85052B4319
:10199000838004838D688563028470BD70B50024E4
:1019A00000220023058C4FF6FF6635400584028C2B
:1019B0008388848B4FF68F752C404FF6FC752C4036
:1019C0000D882C434FF6FF552A408D894FF6FF7640
:1019D00006EA05252A434D8806EA05252A430B4DCC
:1019E000A84202D00F4DA84238D14FF2FF752A40CD
:1019F000CD894FF6FF7606EA05252A434FF6FF35D7
:101A00002A408D8806EA05252A4319E00000014096
:101A10000004004000080040000C0040001000409E
:101A20000014004000040140004001400044014017
:101A30000048014000180040001C00400020004009
:101A40004EF6FF752B404DF6FF752B400D8A06EACA
:101A500005152B434D8A06EA05152B4383808483A5
:101A60008D68C563028470BD70B500220023002418
:101A7000058C4EF6FF7635400584038C8488828B76
:101A800048F6FF752A404FF6FF452A400D884FF66D
:101A9000FF7606EA05252A434DF6FF752B408D8912
:101AA00006EA05352B434D8806EA05352B43FE4DE6
:101AB000A84202D0FD4DA84208D14BF6FF752C403C
:101AC0000D8A4FF6FF7606EA85152C4384808283C3
:101AD0008D680564038470BD002101804180818090
:101AE00081608181C18101824182704770B5034666
:101AF000002000241846183001258D40ACB21D8C02
:101B0000A5431D8409B108290AD100EB61000568CD
:101B10004FF68F76354005600568154305600FE088
:101B20000D1FC5F34E052844056848F6FF7635407D
:101B3000056005684FF6FF7606EA02263543056024
:101B400070BD4163704781637047C1637047016432
:101B500070470A460021018B4FF68F7319401143DD
:101B6000018370470A460021018B48F6FF73194034
:101B70004FF6FF7303EA02231943018370470A46B5
:101B80000021818B4FF68F73194011438183704779
:101B90000A460021818B48F6FF7319404FF6FF7308
:101BA00003EA02231943818370470A460021018B0F
:101BB0004FF6F77319401143018370470A4600211D
:101BC000018B4FF2FF7319404FF6FF7303EA0223B4
:101BD0001943018370470A460021818B4FF6F77342
:101BE00019401143818370470A460021818B4FF2CF
:101BF000FF7319404FF6FF7303EA022319438183F1
:101C000070470A460021018B4FF6FB7319401143C0
:101C1000018370470A460021018B4FF6FF331940BC
:101C20004FF6FF7303EA02231943018370470A4604
:101C30000021818B4FF6FB7319401143818370475C
:101C40000A460021818B4FF6FF3319404FF6FF7390
:101C500003EA02231943818370470A460021018B5E
:101C60004FF67F7319401143018370470A460021E4
:101C7000018BC1F30E014FF6FF7303EA02231943F0
:101C8000018370470A460021818B4FF67F7319400C
:101C90001143818370470A460021818BC1F30E01F5
:101CA0004FF6FF7303EA02231943818370470A4604
:101CB0000021018C4FF6FD731940114301847047D8
:101CC0000A460021018C4FF6F77319401143018435
:101CD00070470A460021018C4FF6DF7319404FF61A
:101CE000FF7303EA02131943018470470A46002177
:101CF000018C4FF67F7319404FF6FF7303EA02130E
:101D00001943018470470A460021018C4FF6FF53A6
:101D100019404FF6FF7303EA022319430184704709
:101D20000A460021018C4FF2FF7319404FF6FF73F2
:101D300003EA02231943018470470A460021018CFB
:101D40004DF6FF7319404FF6FF7303EA0233194350
:101D50000184704730B5002301248C40A3B2048C69
:101D60009C430484048C02FA01F5ADB22C43048434
:101D700030BD30B5002304248C40A3B2048C9C43B6
:101D80000484048C02FA01F5ADB22C43048430BD06
:101D9000828B4FF2FF331A408283828B4FF6FF73A0
:101DA00003EA01231A4382837047F0B50C461546B7
:101DB000002100220026078C4EF6FF7C07EA0C0764
:101DC0000784818B028C4FF6FF7707EA043640F6D2
:101DD000FF4739404FF6FF7707EA052739434FF6AB
:101DE000FF7707EA0337394345F6FF773A4046F471
:101DF00080573A4381830284F0BD828B4FF6F373A0
:101E00001A408283828B0A4382837047F0B50C4666
:101E10001546002100220026078C4FF6FF6C07EACA
:101E20000C070784818B028C4FF6FF7707EA0426A4
:101E30004FF60C7739404FF6FF7707EA03172F4329
:101E400039434FF2FF573A4046F480773A43818353
:101E50000284F0BD028B4FF2FF331A400283028BE3
:101E60004FF6FF7303EA01231A4302837047F0B56C
:101E70000C461546002100220026078C4FF6EF7C09
:101E800007EA0C070784018B028C4FF6FF7707EAFD
:101E9000041640F6FF4739404FF6FF7707EA03374D
:101EA00039434FF6FF7703E0000001400004014092
:101EB00007EA052739434FF65F773A4046F01007A7
:101EC0003A4301830284F0BD028B4FF6F3731A404C
:101ED0000283028B0A4302837047F0B50C46154615
:101EE00000210022068C4FF6FE773E400684018BCF
:101EF000028C4FF60C7631407E1C06EA03162E4308
:101F000031434FF6F576324044F001063243018307
:101F10000284F0BD70B505460C46208850B923896F
:101F2000A28861882846FFF7D8FFE1882846FFF796
:101F3000CBFF25E0208804280AD12389A288618864
:101F40002846FFF794FFE1882846FFF783FF17E054
:101F5000208808280AD12389A28861882846FFF7AB
:101F600055FFE1882846FFF748FF09E02389A2884A
:101F700061882846FFF719FFE1882846FFF708FF28
:101F800070BD002101804180012181800021C1803C
:101F9000018170472DE9F04105460C4600260127D6
:101FA000608808B9022600E00026A088012801D137
:101FB000022700E001272088A0B92389A288618830
:101FC0002846FFF78AFFE1882846FFF77DFF23892F
:101FD0003A4631462846FFF74AFFE1882846FFF790
:101FE00039FF13E02389A28861882846FFF73FFF65
:101FF000E1882846FFF72EFF23893A4631462846D6
:10200000FFF76BFFE1882846FFF75EFFBDE8F08130
:102010000146486B70470146886B70470146C86BA4
:1020200070470146086C70470A884B881A438B88B2
:102030001A43CB881A430B891A434B891A438B895D
:102040001A43A0F84420704700210180418081801C
:10205000C180018141818181704731B1B0F8442054
:1020600042F40042A0F8442005E0B0F84420C2F356
:102070000E02A0F84420704721B1828842F0040289
:10208000828004E082884FF6FB731A40828070479A
:1020900021B1828842F00102828004E082884FF6FA
:1020A000FE731A40828070471AB183890B43838183
:1020B00002E083898B4383817047818270470246A7
:1020C0000020138A0B400BB1012000E00020704774
:1020D000CA430282704730B5024600200023002424
:1020E000158A05EA0103958905EA010413B10CB1CB
:1020F000012000E0002030BDCA430282704741EA5F
:102100000203A0F8483070471AB183890B438381DA
:1021100002E083898B438381704721B1828842F03A
:102120000802828004E082884FF6F7731A408280AA
:10213000704701894FF6F8721140018170470A46D5
:10214000002101894FF68F731940114301817047B7
:1021500030B504460D4629462046FFF7F0FF20899A
:1021600040F00700208130BD2DE9F04104460D46C6
:1021700016461F46602D06D13B46012231462046B9
:10218000FFF775FE05E03B46012231462046FFF78A
:10219000A4FE29462046FFF7D2FF208940F0070021
:1021A0002081BDE8F08130B50C4600210189C9B21B
:1021B0004FF6FF7505EA03251543254329430181A1
:1021C00030BD2DE9F04105460E46174698460024DD
:1021D00043463A4631462846FFF7E5FF2C894FF63D
:1021E000F870044044F007044FF68F70044044F048
:1021F00070042C81BDE8F081F0B504460D4616460A
:102200001F463B46324629462046FFF7CCFF208931
:1022100040F480402081F0BD82884FF68F731A40D1
:10222000828082880A438280704702894FF6F87361
:102230001A40028102890A430281704702894FF6DF
:102240007F731A40028102890A4302817047F0B508
:102250000C4615461E460021002200230189028BF0
:10226000038C4FF6F877394021434FF6FC473A404C
:1022700040F201173A434FF6DD773B404FF6FF77C8
:1022800007EA06172F433B43018102830384F0BD15
:1022900021B1828842F08002828004E082884FF679
:1022A0007F731A4082807047A0F85010704700007A
:1022B00070B504460D4600BF4FF40031FE48FFF7ED
:1022C0005BF90028F8D10121FB48FFF73BF800BF7C
:1022D000FA49F948FFF72EF90028F9D000227821B1
:1022E000F548FFF747F800BFF549F348FFF722F933
:1022F0000028F9D02146F048FFF7C0F800BFF049A8
:10230000891EED48FFF716F90028F8D02946EA485B
:10231000FFF7B4F800BFEA49891EE748FFF70AF95A
:102320000028F8D00121E448FFF718F870BD10B577
:10233000044621460020FFF7BBFF10BD10B5044640
:1023400021464020FFF7B4FF10BD10B5044614B974
:10235000A620FFF7ECFF012C02D1A720FFF7E7FF33
:1023600010BD10B504462CB9C820FFF7E0FFA1202E
:10237000FFF7DDFF012C05D1C020FFF7D8FFA0201B
:10238000FFF7D5FF10BD10B58D20FFF7D0FF14204B
:10239000FFF7CDFFAF20FFF7CAFF10BD10B58D20AE
:1023A000FFF7C5FF1020FFF7C2FFAE20FFF7BFFF0A
:1023B00010BD70B5002418E004F1B001C8B2FFF7F9
:1023C000B6FF0020FFF7B3FF1020FFF7B0FF002596
:1023D00007E0BC4901EB8501085DFFF7AFFF681C12
:1023E000C5B2802DF5DB601CC4B2042CE4DB70BDEB
:1023F0002DE9F04706460F4690469946444618E0B8
:1024000004F1B001C8B2FFF792FF0020FFF78FFF81
:102410001020FFF78CFF354607E0AA4901EB850144
:10242000085DFFF78BFF681CC5B2BD42F5DB601C81
:10243000C4B24C45E4DBBDE8F0872DE9F047064621
:102440000F4690469946444618E004F1B001C8B2E0
:10245000FFF76DFF0020FFF76AFF1020FFF767FF0F
:10246000354607E0974901EB8501085DFFF766FFF8
:10247000681CC5B2BD42F5DB601CC4B24C45E4DB50
:10248000BDE8F08770B500240CE0002506E00020D0
:102490008C4901EB85010855681CC5B2802DF6DB1F
:1024A000601CC4B2042CF0DBFFF783FF70BDF0B5F5
:1024B00014460B46CF1701EB5777C7F3C702CF1768
:1024C00001EB5777FF10A1EBC707FEB20123B34022
:1024D000DDB24CB17B4B03EB80039B5C2B43794F0C
:1024E00007EB8007BB541AE0764B03EB80039B5C41
:1024F000DB43744F07EB8007BB54724B03EB800345
:102500009B5C2B436F4F07EB8007BB546D4B03EB7A
:1025100080039B5CDB436B4F07EB8007BB54F0BD34
:102520002DE9FF4F84B081468A4600200290834601
:102530000698A0EB09040798A0EB0A06CDF80490D2
:10254000CDF800A0002C01DD012705E00CB9002723
:1025500002E04FF0FF376442002E02DD4FF0010829
:1025600006E016B94FF0000802E04FF0FF3866426F
:10257000B44201DD254600E03546002003901EE010
:10258000009AD1B2019AD0B2119AFFF790FF029847
:1025900020440290B3440298A84205DD0298401BF3
:1025A0000290019838440190AB4504DDABEB050B7C
:1025B0000098404400900398401C80B20390691C2E
:1025C00003988842DCDB08B0BDE8F08F2DE9F043CA
:1025D00006460F4690460025444643E03A1BD1B2DA
:1025E0007219D0B20122FFF762FF3A1BD1B2721BFF
:1025F000D0B20122FFF75BFF3A19D1B2721BD0B201
:102600000122FFF754FF3A19D1B27219D0B2012258
:10261000FFF74DFF7A19D1B23219D0B20122FFF77C
:1026200046FF7A1BD1B23219D0B20122FFF73FFF29
:102630007A1BD1B2321BD0B20122FFF738FF7A19D0
:10264000D1B2321BD0B20122FFF731FF6D1C05FB66
:1026500005F004FB040008FB1809B9F1000F01DDC7
:10266000641E6D1E6000604308FB08F18842B5DA05
:10267000BDE8F0832DE9FE4F0746884692461C468A
:102680000197CDF80080082C02D14FF0060927E011
:102690002046E31704EB5373DB1021464FEAE47C3A
:1026A00004EB5C7C4FEAEC0CA4EBCC0CBCF1000F0F
:1026B0000AD04FF0010C09E0005400400100030073
:1026C00082000700280300204FF0000C63442246DC
:1026D00004EBD27C4FEA6C0C03FB0CF303F0FF0914
:1026E000AAF12000C6B200255EE0082C07D106EB57
:1026F0004600FE4901EB400010F805B01DE00C2C2F
:1027000007D106EB4600FA4901EB800010F805B04E
:1027100013E0102C05D1F74800EB061010F805B0B7
:102720000BE0182C07D106EBC600F34901EB800043
:1027300010F805B001E0BDE8FE8F002002901CE01B
:102740000BF0010028B1414638460C9AFFF7AFFE66
:1027500009E00C9808B9012000E00020024641463B
:102760003846FFF7A4FE4FEA6B0B08F1010000F0BA
:10277000FF080298401CC0B2029002980828DFDBD4
:10278000781CC7B2082C0BD004EBD4714A10019905
:10279000791A8A4204D1019F00980830C0B2009093
:1027A000DDF80080681CC5B24D459EDB00BFC2E766
:1027B0002DE9FF4B0746884691461C4600260297A6
:1027C000CDF804802046E21704EB5272D210214665
:1027D000E31704EB5373DB10A4EBC3030BB101232A
:1027E00000E000231A44624392B20092002575E093
:1027F000102C25D100261EE0C6EBC60000EB8000A1
:10280000BE49085C99F80010884213D1C6EBC60097
:1028100000EB8000B9490844407899F801108842DB
:1028200008D1C6EBC60000EB8000B4490844C01CC8
:1028300010F805B0761C40F286508642DCD31BE0CF
:10284000182C07D10AEBCA00AD4901EBC00010F803
:1028500005B011E0202C05D1AA4800EBCA1010F8F1
:1028600005B009E0402C05D1A74800EB4A2010F83C
:1028700005B001E0BDE8FF8B002003901CE00BF0E9
:10288000010028B1414638460C9AFFF710FE09E0D6
:102890000C9808B9012000E0002002464146384665
:1028A000FFF705FE4FEA6B0B08F1010000F0FF088F
:1028B0000398401CC0B2039003980828DFDB781C03
:1028C000C7B20298381AA04204D1029F019808307A
:1028D000C0B20190DDF80480681C85B20098854282
:1028E00086DB00BFC6E72DE9F84105460F461646D0
:1028F0001C46DDF81C804BE03078202829DB30783E
:102900007E2826DC082C06D1A81D802800DD0025A5
:102910003819C7B208E004EBD47105EB61018029D6
:1029200002DD00253819C7B2CDF800803278234681
:1029300039462846FFF79EFE082C02D1A81DC5B2D5
:1029400005E0204604EBD07105EB6101CDB2761CA9
:102950001EE0082C06D1A81D802800DD00253819AE
:10296000C7B205E02819802802DD00253819C7B252
:102970002346324639462846CDF80080FFF718FF37
:10298000082C02D1A81DC5B201E02819C5B2B61C99
:1029900030780028B0D1BDE8F88110B5024601209A
:1029A00000E050430B1EA1F10104E1B2F9D110BDCA
:1029B0002DE9FF4F82B0064691461F46DDE90F4ADA
:1029C0004FF0000B082C01D14FF0020B002530E036
:1029D000781B401EC1B20A20FFF7DFFFB9FBF0F001
:1029E0000A21B0FBF1F201FB1208B8F1000F0ED181
:1029F00004EBD4710BEB610101FB0561C8B2234606
:102A00003022CDE900A40399FFF734FE0FE004EB78
:102A1000D4710BEB610101FB0561C8B208F1300113
:102A2000CAB22346CDE900A40399FFF723FE681C30
:102A3000C5B2BD42CCDB06B0BDE8F08F2DE9FF4F3B
:102A400005460E4617461C46DDF838904FF0000A42
:102A50000095B3462046E21704EB5272D21021468D
:102A6000E31704EB5373DB10A4EBC3030BB1012397
:102A700000E000231A44D4B24FF0000856E00020D2
:102A800003904CE00D9810F80A0002900AF1010042
:102A90001FFA80FA002001901DE0029800F001006A
:102AA00028B14A4631462846FFF701FD0AE0B9F150
:102AB000000F01D1012000E00020024631462846E7
:102AC000FFF7F5FC029840100290701CC6B2019806
:102AD000401CC0B2019001980828DEDB681CC5B21A
:102AE0000098281AB84215D1009D0FE07E0A01080F
:102AF000840A0108F80E0108E81401082C150108E1
:102B00007ED60108C6D6010846D701080BF1080099
:102B100000F0FF0B5E460398401CC0B20390039880
:102B2000B842AFDB08F1010000F0FF08A045A6DBCA
:102B3000BDE8FF8F00B587B001210220FDF7BCFF83
:102B400001214805FEF701F805A8FDF75DFD4FF4EA
:102B50004070059002208DF8180001208DF81A00B1
:102B600003208DF8190005A93E48FDF705FD042254
:102B700008213C48FDF78BFD042209213948FDF767
:102B800086FD01A8FEF7ACFB4FF48060ADF80E00A7
:102B90000001ADF81000344801904BF6FF70ADF81D
:102BA0000A000020ADF808007720ADF80C0001A95C
:102BB0002E48FEF728FB01212C48FEF7A0FBC82079
:102BC00005F043FEAE20FFF7B2FB0020FFF7AFFB9E
:102BD0001020FFF7ACFB0020FFF7A9FBB020FFF7A8
:102BE000A6FB8120FFF7A3FBFF20FFF7A0FBA1209E
:102BF000FFF79DFBA620FFF79AFBA820FFF797FBA6
:102C00001F20FFF794FBC820FFF791FBD320FFF7AD
:102C10008EFB0020FFF78BFBD520FFF788FB802081
:102C2000FFF785FBD920FFF782FB1F20FFF77FFB13
:102C3000DA20FFF77CFB0020FFF779FBDB20FFF7B2
:102C400076FB4020FFF773FB8D20FFF770FB14200D
:102C5000FFF76DFBFFF716FCAF20FFF768FB07B02F
:102C600000BD00000004024040420F00005400403C
:102C70007FB505460C4601210420FDF766FF0020C4
:102C8000ADF80C00ADF806000295ADF804408DF8E3
:102C90000E0001A92A48FEF766FD01212848FFF72A
:102CA00017FA012211462648FFF7FEF94FF4A060FB
:102CB000FDF76CFB1E208DF8000001208DF803004D
:102CC00002208DF801008DF802006846FDF763FBD5
:102CD00001211B48FEF7D0FD7FBD10B50024194827
:102CE00000680BF017F8FDF717FB4FF47A7190FBB3
:102CF000F1F201FB1204204610BD70B50446002518
:102D000020460BF007F8FDF707FB4FF47A7190FBB4
:102D1000F1F201FB1205284670BD10B501210848EB
:102D2000FFF7D9F901280AD101210548FFF7E4F995
:102D300003F040FE03480068401C0249086010BDD3
:102D4000000800401000002010B588480478007882
:102D5000012802D1864803F013FE84480078022837
:102D600002D1844803F00CFE002080490870204600
:102D700010BD1FB501210846FDF7E7FE0020ADF8A4
:102D80000C00ADF8060044F61F6002906320ADF819
:102D9000040000208DF80E0001A94FF08040FEF7DE
:102DA000E2FC01218807FFF793F901221146900701
:102DB000FFF77AF91C208DF8000001208DF8030040
:102DC00000208DF801008DF802006846FDF7E3FA57
:102DD00001218807FEF750FD1FBD1CB501210846E3
:102DE000FDF76AFE00208DF80400012000908DF8A8
:102DF000070003208DF8050069465F48FDF7BCFB1E
:102E0000FFF7B7FF1CBD10B5002401215A48FDF79C
:102E100015FC00B90124204610BD10B557480078B4
:102E200057490870FFF7EFFF54490870544800787D
:102E300048B908460078012805D15248807910B178
:102E40000020504908804E480078012810D14B4896
:102E5000007801280CD14B480088B0F5487F07DC8A
:102E60004848807920B14748008814304549088097
:102E70004348007801280DD142480088B0F5487FCA
:102E800008DD4048807928B1022038490870C920FF
:102E90003C4908803A480078012828D13748007812
:102EA00028BB38480088C82821DC3648C07918B9C2
:102EB00001202E4908701AE03248C079012816D145
:102EC0003048007928B901202E4908710020488037
:102ED0000DE02C480079012809D12A484088C828EB
:102EE00005DC032021490870002026490871254887
:102EF000007970B123484088143022494880084640
:102F00004088C82805DD01201849087000201D49A7
:102F1000087110BD10B501218807FFF7DCF8012802
:102F200023D101218007FFF7E7F817480088401CEC
:102F30001549088015480088401C1449088012482B
:102F400000880A2805DD01201149087000200E497B
:102F500008800E480088642805DB01200D490870B0
:102F600000200A490880FFF758FF10BD1400002018
:102F70006C0000207C0000200000024026000020A1
:102F80002700002016000020200000202400002040
:102F90001E0000202200002038B50446F74890F8B3
:102FA0002400C0B114B10220009001E00020009084
:102FB000F24A1268D17BF14A526810786B460122BE
:102FC00003F099F910B14FF0FF3038BD9DF80010B3
:102FD000EA48417423E0E948807A10B94FF0FF30A5
:102FE000F3E724B1E548407C08B10020EDE714B1D7
:102FF0000120009001E000200090E04A1268D17B9F
:10300000DE4A526810786B46012203F074F910B161
:103010004FF0FF30D9E79DF80010D84841740020E8
:10302000D3E738B500241FE0D4480068C07AA04236
:1030300004D0D2480068407DA04200D112E0CF49C0
:10304000496808786B460122214603F093F810B1D5
:103050004FF0FF3038BD9DF800202146C8A00AF08F
:103060009DFC00BF601CC4B2C44840680079A04207
:10307000DADC0020EEE770B504460D46BF48006874
:10308000C07AA04204D0BD480068407DA04202D171
:103090004FF0FF3070BDB94840680079A04202DCB3
:1030A0004FF0FF30F6E7B549496808782B46012212
:1030B000214603F05FF8EDE738B50446AF4890F8D5
:1030C0002300A04201D1002038BD14B1302000906F
:1030D00001E000200090A948807C20B19DF800000C
:1030E00040F002000090A54890F8220020B19DF821
:1030F000000040F080000090A04A1268117D9F4AB5
:10310000526810786B46012203F0F5F810B14FF0C9
:10311000FF30D9E7994880F823400020D4E738B53C
:10312000044604F0700010B10120009005E014B1D5
:103130000020009001E040200090904A1268917CAD
:103140008E4A526810786B46012203F0D4F820B101
:1031500000218A488172481E38BD9DF8000020F089
:103160004001864801730020009004F0400020B91F
:103170009DF8000040F00400009004F0200020B909
:103180009DF8000040F00200009004F0100020B90B
:103190009DF8000040F00100009004F0080020B904
:1031A0009DF8000040F038000090744A1268D17C0D
:1031B000724A526810786B46012203F09CF820B1E5
:1031C00000216E488172481EC6E724B1082C02D047
:1031D0000020FFF771FF69488472002101753220D9
:1031E00005F033FB0020B7E738B504466348807C20
:1031F000A04201D1002038BD002C46D05F4A1268A1
:1032000011795E4A526810786B46012202F0B2FFD3
:1032100010B14FF0FF30EEE79DF8000020F02000E5
:103220000090564A12681179544A526810786B46D9
:10323000012203F060F810B14FF0FF30DBE703200C
:1032400005F003FB022000904C4890F8220020B1CA
:103250009DF8000040F080000090484890F823005E
:1032600020B19DF8000040F030000090434A126801
:10327000117D424A526810786B46012203F03BF8F8
:10328000002851D04FF0FF30B5E73C4A1268117961
:103290003A4A526810786B46012202F06BFF10B177
:1032A0004FF0FF30A7E73548807A00F0010028B1E1
:1032B0009DF8000040F02000009004E09DF8000020
:1032C00020F0200000902D4A126811792B4A526894
:1032D00010786B46012203F00EF810B14FF0FF306A
:1032E00089E7032005F0B1FA244890F8220010B1D4
:1032F0008020009001E000200090204890F82300FA
:1033000020B19DF8000040F0300000901B4A126888
:10331000117D1A4A526810786B46012202F0EBFFC9
:1033200010B14FF0FF3066E714488474002062E764
:1033300008B51248807A10B94FF0FF3008BD002060
:1033400000900E4A1268D17B0C4A526810786B4686
:10335000012202F0D0FF10B14FF0FF30EEE7074A34
:1033600012685179054A526810786B46012202F0C2
:10337000C2FF68B14FF0FF30E0E7000028000020F6
:10338000252335783A20252335780D0A00000000E2
:10339000F84A12681179F74A526810786B46012290
:1033A00002F0A9FF10B14FF0FF30C7E7F14890F8E5
:1033B0002400002853D00C200090EE4A12681179A6
:1033C000EC4A526810786B46012202F094FF10B16B
:1033D0004FF0FF30B2E7322005F037FAC0200090FE
:1033E000E448807A00F0010020B19DF8000040F030
:1033F00020000090DF4A12681179DE4A5268107886
:103400006B46012202F077FF10B14FF0FF3095E7D5
:10341000D848407C10B10220009001E000200090CC
:10342000D44A1268D17BD34A526810786B46012285
:1034300002F061FF10B14FF0FF307FE700200090F5
:10344000CC4A12685179CB4A526810786B460122F7
:1034500002F051FF002855D04FF0FF306EE70420F6
:103460000090C44A12681179C24A526810786B46BB
:10347000012202F040FF10B14FF0FF305EE7BD487F
:10348000807C20B9BB48807A00F0010010B9402050
:10349000009001E060200090B64A12681179B54AA8
:1034A000526810786B46012202F025FF10B14FF0F0
:1034B000FF3043E7322005F0C8F9AE48407C10B138
:1034C0000120009001E000200090AA4A1268D17B00
:1034D000A84A526810786B46012202F00CFF10B126
:1034E0004FF0FF302AE7A34A12685179A14A526887
:1034F0001078A04B1033012202F0FDFE10B14FF006
:10350000FF301BE7002019E770B50446002624F0C1
:103510000104984890F8240008B1002070BD954837
:10352000807A10B94FF0FF30F8E79248057C807A36
:103530002040904908740846007CA04202D04FF019
:10354000FF3600E0002614B98A48007D18B101203A
:10355000FFF722FD02E00020FFF71EFD3CB1FFF760
:10356000E7FE20B1834805744FF0FF30D6E73046C0
:10357000D4E738B504467F48807A10B94FF0FF3061
:1035800038BDBC2C02DB0120009015E0622C02DB70
:103590000220009010E02A2C02DB032000900BE0B8
:1035A000142C02DB0420009006E00A2C02DB05202C
:1035B000009001E0062000906E48C07A9DF800104F
:1035C000884201D10020DBE76A4A12689178694A93
:1035D000526810786B46012202F08DFE10B14FF058
:1035E000FF30CDE79DF800106248C1720020C7E7A8
:1035F00038B50446282C02DD4FF0FF3038BDDCB969
:103600000020FFF759FD00208DF8000007208DF8FD
:103610000100584A1268917C564A526810786B46ED
:10362000022202F068FE10B14FF0FF30E6E7002101
:10363000504801750020E1E70120FFF73DFD202003
:103640008DF80000012C06D100208DF80100052026
:10365000FFF78FFF17E0052C06DC01208DF8010035
:103660000520FFF786FF0EE0142C06DC02208DF803
:1036700001000A20FFF77DFF05E003208DF801001F
:103680001420FFF776FF9DF80100072101EB801061
:10369000C0B28DF80100374A1268917C354A5268F1
:1036A00010786B46022202F026FE10B14FF0FF3078
:1036B000A4E708212F4881720021017301210175BF
:1036C0000020FFF721FF002098E738B5044629487D
:1036D000807A10B94FF0FF3038BD264890F82400AA
:1036E00010B14FF0FF30F7E72248007D50B134B100
:1036F000282C04DCE0B2FFF77BFF0020ECE7002081
:10370000FFF776FF042C01DA042404E0B4F57A7F95
:1037100001DD4FF47A744FF47A7090FBF4F0401EA0
:10372000C0B20090134A12685178124A5268107859
:103730006B46012202F0DFFD10B14FF0FF30CBE706
:103740009DF80000401C4FF47A7191FBF0F081B2BB
:103750000848C1810146C9894810FFF70AFF0020C7
:10376000BAE738B504460348807A28B94FF0FF30ED
:1037700038BD000028000020022C06D0042C07D001
:10378000082C08D0102C0CD108E0002000900BE091
:103790000820009008E01020009005E0182000901C
:1037A00002E04FF0FF30E3E700BFF748407A9DF8B2
:1037B0000010B0EBE10F01D10020D9E7F24A126806
:1037C000D179F14A526810786B46012202F093FDDC
:1037D00010B14FF0FF30CBE79DF80000C110EA4870
:1037E00041720020C4E738B50446E748807A10B932
:1037F0004FF0FF3038BDFA2C09D0B4F5FA7F09D06C
:10380000B4F57A7F09D0B4F5FA6F0CD108E0002046
:1038100000900BE00820009008E01020009005E0E8
:103820001820009002E04FF0FF30E3E700BFD648D9
:10383000007A9DF80010B0EBE10F01D10020D9E72C
:10384000D14A12689179D04A526810786B460122A9
:1038500002F051FD10B14FF0FF30CBE79DF80000B2
:10386000C010C94908720020C4E71CB580208DF83B
:103870000000C54A1268917CC34A526810786B46B2
:10388000012202F038FD10B14FF0FF301CBD642062
:1038900004F0DBFF00208DF80000BB4A1268917C29
:1038A000B94A526810786B46012202F024FD10B12B
:1038B0004FF0FF30EAE7B44A1268917DB24A52688D
:1038C00010786B46062202F055FC10B14FF0FF3025
:1038D000DCE79DF80500C007400F9DF8031001F0DC
:1038E000010140EA41009DF8011001F0010140EAA8
:1038F000010494B1012C03D10121A348C17431E02A
:10390000022C03D10021A048C1742BE021469FA0C6
:103910000AF044F84FF0FF30B8E79B4A1268D178BC
:10392000994A526810786B46012202F023FC10B1CC
:103930004FF0FF30AAE79DF8000000F00F042CB90B
:103940009C480AF02BF84FF0FF309FE7042C06D17B
:1039500099A00AF023F801218B48C17402E00021EC
:103960008948C174FF2188488172FF208649087206
:10397000FF2185484172C1724FF6FF71C181FF215D
:10398000017481740121017380F82210002180F8F4
:103990002310417501751630016041608160163851
:1039A00080F8241080F82510C1844FF4FA60FFF7E6
:1039B0001AFF10B14FF0FF3068E70220FFF7D1FE89
:1039C00010B14FF0FF3061E72A20FFF7D2FD10B1B0
:1039D0004FF0FF305AE73220FFF777FE10B14FF07B
:1039E000FF3053E70020FFF78FFD10B14FF0FF309D
:1039F0004CE70020FFF7F8FB10B14FF0FF3045E730
:103A00000020FFF78CFB002040E770477CB50446A0
:103A10000D465D48807A00F0700010B94FF0FF301D
:103A20007CBD594A1268117B574A526810786B4620
:103A3000062202F09FFB10B14FF0FF30F0E79DF837
:103A400001009DF8001040EA012000B220809DF89E
:103A500003009DF8021040EA012000B260809DF84A
:103A600005009DF8041040EA012000B2A08015B1C5
:103A70002846FFF7CAFF0020D2E77CB504460D4672
:103A80004148807A00F0080010B94FF0FF307CBD4B
:103A90003D4A1268517B3C4A526810786B460622B8
:103AA00002F068FB10B14FF0FF30F0E79DF8010025
:103AB0009DF8001040EA012000B220809DF803002C
:103AC0009DF8021040EA012000B260809DF80500D8
:103AD0009DF8041040EA012000B2A08015B12846EC
:103AE000FFF793FF0020D2E7F8B506460C462648BC
:103AF000807A10B94FF0FF30F8BD234A1268917BED
:103B0000214A526810786B46022202F033FB10B152
:103B10004FF0FF30F0E79DF801009DF8001040EAFB
:103B2000012005B214B12046FFF76FFF1648406828
:103B3000B0F9080000EE100AF8EEC00A00EE105AC4
:103B4000B8EEC00A70EE600A0F484068C08800EE08
:103B5000100AB8EE400A80EE801A9FED1F0A31EE7F
:103B6000000ADFED1E0A20EE200ABDEEC00A86ED37
:103B7000000A0020C0E710B588B004461CB94FF019
:103B8000FF3008B010BD2BE028000020556E737583
:103B900070706F7274656420736F6674776172659C
:103BA0002070726F64756374207265762025642EB0
:103BB0000A0000008C1A020848616C662073656E6A
:103BC0007369746976697479207061727420666FA4
:103BD000756E642E0A00000000000C420000804751
:103BE000206830B9606820B9A06810B9002008B01A
:103BF00010BDF9494968087806AB0322114602F066
:103C0000B9FA10B14FF0FF30F1E79DF81800082124
:103C100001EB201000F00F00ADF800009DF8190036
:103C200001EB201000F00F00ADF802009DF81A0023
:103C300001EB201000F00F00ADF8040020684100F7
:103C4000BDF90000403091FBF0F000B2ADF810007B
:103C500060684100BDF90200403091FBF0F000B215
:103C6000ADF81200A0684100BDF90400403091FB9E
:103C7000F0F000B2ADF81400D7494968087806ABF7
:103C80000622114602F076FA10B14FF0FF30AEE78F
:103C90009DF819009DF8181040EA012000B2ADF817
:103CA00008009DF81B009DF81A1040EA012000B2A0
:103CB000ADF80A009DF81D009DF81C1040EA012097
:103CC00000B2ADF80C00BDF81000BDF808100844B3
:103CD00000B2ADF81000BDF81200BDF80A1008449B
:103CE00000B2ADF81200BDF81400BDF80C10084485
:103CF00000B2ADF81400BDF81000000A8DF81800ED
:103D0000BDF81000C0B28DF81900BDF81200000A0D
:103D10008DF81A00BDF81200C0B28DF81B00BDF876
:103D20001400000A8DF81C00BDF81400C0B28DF814
:103D30001D00A9494968087806AB0622114602F021
:103D4000DAFA10B14FF0FF3051E700204FE701469B
:103D5000A148007A30B1012807D0022809D00328F1
:103D60000FD10AE0FA2008800EE04FF4FA700880C4
:103D70000AE04FF47A70088006E04FF4FA60088099
:103D800002E00020088000BF00BF0020704701460D
:103D90009148407A30B1012807D0022808D0032882
:103DA0000CD108E0022008700BE00420087008E045
:103DB0000820087005E01020087002E04FF0FF3086
:103DC000704700BF8448C07C18B108784006000ED8
:103DD00008700020F4E701467F48C07A082817D20F
:103DE000DFE800F01704070A0D101318BC20088044
:103DF00013E06220088010E02A2008800DE01420E3
:103E000008800AE00A20088007E00520088004E016
:103E100000BF00BF0020088000BF00BF0020704727
:103E200001466D4890F8240010B14FF0FF30704704
:103E30006948C08908800020F9E701460020088011
:103E4000401E704701464FF0FF3070470146624800
:103E5000007A30B1012809D002280CD0032814D1EF
:103E60000EE09FED5E0A81ED000A11E09FED5C0A15
:103E700081ED000A0CE09FED5B0A81ED000A07E08E
:103E80009FED590A81ED000A02E04FF0FF307047C4
:103E900000BF0020FBE701464F48407A30B10128BF
:103EA00008D002280AD0032810D10BE04FF480403C
:103EB00008800EE041F69C7008800AE04FF48050C4
:103EC000088006E04FF40060088002E04FF0FF3009
:103ED000704700BF4048C07C10B10888401008807F
:103EE0000020F5E701463C48007C08700020704740
:103EF00001463948807A10B10120087001E00020A5
:103F000008700020704738B504463348807A10B9ED
:103F10004FF0FF3038BD304A1268117C2E4A52688B
:103F200010786B46022202F025F910B14FF0FF30F5
:103F3000F0E79DF801009DF8001040EA012000B272
:103F400020800020E6E72DE9FE4F0746884692468E
:103F50001D46DDF830B0002600241F4890F82400EC
:103F600010B1601EBDE8FE8F002028701A48807ACC
:103F700010B94FF0FF30F5E71748007C10B94FF04B
:103F8000FF30EFE71448007C00F0400008B1B01C9F
:103F9000C6B21148007C00F0200008B1B01CC6B2C7
:103FA0000D48007C00F0100008B1B01CC6B20A48F1
:103FB000007C00F0080008B1B01DC6B2064A1268C5
:103FC000917A054A526810786B46022202F0D2F8C4
:103FD00060B14FF0FF30C5E7280000200000034328
:103FE0000000834233330342333383419DF80100A1
:103FF0009DF8001040EA0129B14501DA0020B1E73F
:10400000FA4840684088B9EB600F17DDF74A12683C
:10401000517CF64A526810786B46012202F0AAF8E9
:1040200010B14FF0FF309DE79DF8000000F0100048
:1040300020B1FFF77DF96FF0010093E75046FFF7DD
:10404000E4FCEA4A1268D17AE84A526810786B4672
:10405000324602F08FF810B14FF0FF3082E799FB43
:10406000F6F0401E8BF8000000202870B4422AD0E1
:10407000DE48007C00F0080028B3601C1DF800003A
:104080001DF8041040EA012000B2A8F80000E01C6E
:104090001DF80010A01C1DF8000041EA002000B22D
:1040A000A8F80200601D1DF80010201D1DF800007A
:1040B00041EA002000B2A8F80400287840F0080087
:1040C0002870A01D84B2B44213D0C848007C00F010
:1040D000400070B1601C1DF800001DF8041040EA9B
:1040E000012000B23880287840F040002870A01CE1
:1040F00084B2B44213D0BD48007C00F0200070B1FF
:10410000601C1DF800001DF8041040EA012000B2F8
:104110007880287840F020002870A01C84B2B44237
:1041200013D0B248007C00F0100070B1601C1DF884
:1041300000001DF8041040EA012000B2B880287881
:1041400040F010002870A01C84B200200AE7F8B5E7
:1041500004460F461646A54890F8240010B94FF0C3
:10416000FF30F8BDA148807A10B94FF0FF30F8E772
:104170009E4A1268917A9D4A526810786B460222D4
:1041800001F0F8FF10B14FF0FF30EAE79DF80100B1
:104190009DF8001040EA0125A54203DA00203070A6
:1041A000401EDEE7914840684088B5EB600F17DDA0
:1041B0008E4A1268517C8D4A526810786B460122F3
:1041C00001F0D8FF10B14FF0FF30CAE79DF80000B2
:1041D00000F0100020B1FFF7ABF86FF00100C0E76E
:1041E000E2B2824B1B68D97A804B5B6818783B46F9
:1041F00001F0C0FF10B14FF0FF30B2E795FBF4F0D3
:10420000401E30700020ACE70146784880F822104C
:10421000002070477CB5054674494968087801ABB1
:1042200004220D2101F0A6FF08B107207CBD9DF8F6
:104230000700C0F301109DF8041001F0E00140EA0E
:10424000E1008DF800009DF80700C0F381009DF8A3
:10425000051001F0E00140EAE1008DF801009DF851
:10426000070000F003009DF8061001F0E00140EAAD
:10427000E1008DF80200002427E01DF8040030B9A9
:104280009FED5B0A05EB840080ED000A1BE09FEDCB
:10429000590A05EB840080ED000A0BE005EB840071
:1042A00090ED000ADFED540A20EE200A05EB8400B1
:1042B00080ED000A1DF80400401EC0B20DF8040095
:1042C0000028EBD100BF601CC4B2032CD5DB00205A
:1042D000ACE7F0B52DED028B83B006460F46002506
:1042E0006846FFF797FF002447E056F8241057F878
:1042F0002420881A002801DB014600E0414200EE3C
:10430000101AB8EEC00ADFED3D0A80EE208A68463A
:1043100000EB840090ED000AB5EEC00AF1EE10FA51
:1043200018D0684600EB8400D0ED000A88EE200A21
:10433000F7EE000A70EE608AB0EEE80A3048D0ED81
:10434000090AB4EEE00AF1EE10FA15DD0120A040F2
:10435000054311E02A4890ED070AB4EEC80AF1EED1
:1043600010FA06DC90ED080AB4EEC80AF1EE10FA75
:1043700002D20120A0400543641C032CB5DB284673
:1043800003B0BDEC028BF0BDF0B52DED048B81B018
:1043900006460F4600251549496808786B460322F2
:1043A0000D2101F0E7FE20B1072001B0BDEC048B28
:1043B000F0BD9DF8000000F01F008DF800009DF892
:1043C000010000F01F008DF801009DF8020000F0D0
:1043D0001F008DF80200002461E056F8241057F801
:1043E0002420881A00280DDB01460CE0280000205C
:1043F000000000007B14AE3E1D5A843F0000804741
:1044000070D90108414200EE101AB8EEC00A5FED03
:10441000050A80EE208A1DF8040068B3FE4890ED7E
:10442000000AB8EE400ADFEDFD0A80EE801AF0EED9
:10443000418A05E09FEDFA0A28EE800AF0EE408AF4
:104440001DF80400401EC0B20DF804000028F1D190
:1044500088EE280AF7EE000A30EE609AB0EEC90A3C
:10446000ED48D0ED060AB4EEE00AF1EE10FA15DDE3
:104470000120A040054311E0E74890ED040AB4EEA6
:10448000C80AF1EE10FA06DC90ED050AB4EEC80A8F
:10449000F1EE10FA02D20120A0400543641C032C67
:1044A0009BDB284681E72DE9F04F87B005460C4697
:1044B000914601208DF8100000208DF81100D94A96
:1044C0001268917CD74A5268107804AB022201F03E
:1044D00012FF20B14FF0FF3007B0BDE8F08FC820C9
:1044E00004F0B3F900208DF81000CE4A1268D17B99
:1044F000CC4A5268107804AB012201F0FCFE10B1E6
:104500004FF0FF30E8E7C74A12685179C54A526850
:10451000107804AB012201F0EEFE10B14FF0FF3035
:10452000DAE7C04A1268917CBE4A5268107804AB40
:10453000012201F0E0FE10B14FF0FF30CCE7B94AA4
:104540001268D17DB74A5268107804AB012201F09D
:10455000D2FE10B14FF0FF30BEE7B24A12681179B7
:10456000B04A5268107804AB012201F0C4FE10B1C9
:104570004FF0FF30B0E70C208DF81000A94A126808
:104580001179A84A5268107804AB012201F0B3FEF9
:1045900010B14FF0FF309FE70F2004F056F9A1480B
:1045A000806A407A8DF810009E4A126891789D4A80
:1045B0005268107804AB012201F09DFE10B14FF05B
:1045C000FF3089E79748806A007A8DF81000954A95
:1045D00012685178934A5268107804AB012201F0B6
:1045E0008AFE10B14FF0FF3076E7B9F1000F07D027
:1045F0008C48806A807A40F0E0008DF8100004E07A
:104600008848806A807A8DF81000864A126891790D
:10461000844A5268107804AB012201F06CFE10B19C
:104620004FF0FF3058E7B9F1000F07D07D48806A9E
:10463000C07A40F0E0008DF8100003E07648C07AC0
:104640008DF81000774A1268D179764A526810784E
:1046500004AB012201F04FFE10B14FF0FF303BE7F9
:10466000B9F1000F02D0C82004F0EFF840208DF817
:1046700010006C4A126811796A4A5268107804ABCB
:10468000012201F038FE10B14FF0FF3024E778200E
:104690008DF81000634A12685179624A52681078A6
:1046A00004AB012201F027FE10B14FF0FF3013E7F9
:1046B0005949888904F0C9F800208DF81000594A3A
:1046C00012685179574A5268107804AB012201F000
:1046D00012FE10B14FF0FF30FEE6524A1268917A96
:1046E000504A5268107804AB022201F043FD10B129
:1046F0004FF0FF30F0E69DF811009DF8101040EAF1
:10470000012B0C209BFBF0F0C6B20020A860686073
:104710002860A06060602060824665E0414A1268BF
:10472000D17A404A5268107804AB0C2201F022FD85
:1047300010B14FF0FF30CFE69DF811009DF810103A
:1047400040EA012000B2ADF808009DF813009DF882
:10475000121040EA012000B2ADF80A009DF81500E1
:104760009DF8141040EA012000B2ADF80C00BDF92C
:104770000810206808442060BDF90A1060680844E9
:104780006060BDF90C10A0680844A0609DF8170097
:104790009DF8161040EA012000B2ADF800009DF827
:1047A00019009DF8181040EA012000B2ADF802008F
:1047B0009DF81B009DF81A1040EA012000B2ADF8E8
:1047C0000400BDF90010286808442860BDF90210F3
:1047D000686808446860BDF90410A8680844A860C7
:1047E0000AF1010000F0FF0AB24597DB0A48D0F851
:1047F00000C02868C117090441EA10410704624655
:104800000023384609F08FF832460023CDE9020133
:1048100009F089F8286007E070D9010800B04C451C
:1048200054E3853F28000020F848D0F800C06868AD
:10483000C117090441EA10410704624600233846C3
:1048400009F071F832460023CDE9020109F06BF856
:104850006860EE48D0F800C0A868C117090441EAB2
:104860001041070462460023384609F05CF83246DE
:104870000023CDE9020109F056F8A860E348D0F81A
:1048800004C02168C817000440EA11480F046246BA
:1048900000233846414609F046F832460023CDE968
:1048A000020109F040F82060D848D0F804C06068E0
:1048B000C117090441EA1041070462460023384643
:1048C00009F031F832460023CDE9020109F02BF856
:1048D0006060CE48D0F804C0A068C117090441EA5E
:1048E0001041070462460023384609F01CF832469E
:1048F0000023CDE9020109F016F8A060A0680028A5
:1049000004DDA068A0F58030A06003E0A06800F599
:104910008030A0600020DFE538B50446BC4890F840
:104920002400A04201D1002038BD24B3B84890F83B
:10493000250010B94FF0FF30F6E70020FEF72CFB02
:104940000020FEF751FCB249C88CFEF7BEFE0020E5
:104950000090AF49496808786B460122232101F095
:10496000CAFC0121AA4880F824100120FEF714FB9C
:10497000FEF7DEFC13E00020FEF70EFBA448007CEF
:104980000090A349496808786B460122232101F071
:10499000B2FC00219E4880F82410FEF7C9FC0020DC
:1049A000C2E72DE9F04F8DB083460F4602200C90F0
:1049B000974890F8240020B10020FFF7ADFF0126B2
:1049C00000E0002603A8FFF7C2F905A8FFF7DFF90A
:1049D00001A8FFF700FA02A8FFF722FA8C4890F826
:1049E0000AA004A8FFF77EFA002407E00022394657
:1049F0005846FFF758FD00B902E0641C022CF5DBB5
:104A000000BF022C01D1002528E0002407E001228C
:104A100006A909A8FFF747FD00B902E0641C022CB3
:104A2000F5DB00BF022C01D1002517E006A93846AE
:104A3000FFF74FFC00F0FF0809A95846FFF7A4FC58
:104A400000F0FF090025B9F1000F01D145F0010583
:104A5000B8F1000F01D145F0020500BFFF206C49FD
:104A60000872FF216A484172C1724FF6FF71C1811D
:104A7000FF218172017401210173BDF80C00FEF762
:104A8000B2FE9DF81400FEF76CFEBDF80400FEF7C0
:104A900070FDBDF80800FEF718FE5046FEF73FFB1C
:104AA0009DF81000FEF730FD16B10120FFF734FF2E
:104AB00028460DB0BDE8F08FF8B504460D46164601
:104AC00016B94FF0FF30F8BD5148807A10B94FF059
:104AD000FF30F8E720128DF80000E0B28DF80100F9
:104AE0009DF8010028444A4949684989884202DD05
:104AF0004FF0FF30E7E7464A1268117E444A526899
:104B000010786B46022201F0F6FB10B14FF0FF3037
:104B1000D9E7EAB23E4B1B68597D3D4B5B6818787C
:104B2000334601F0E8FB10B14FF0FF30CBE7002037
:104B3000C9E7F8B504460D46164616B94FF0FF30E2
:104B4000F8BD3348807A10B94FF0FF30F8E72012F3
:104B50008DF80000E0B28DF801009DF801002844B6
:104B60002B4949684989884202DD4FF0FF30E7E769
:104B7000274A1268117E264A526810786B46022234
:104B800001F0B9FB10B14FF0FF30D9E7EAB2204B8A
:104B90001B68597D1E4B5B681878334601F0EAFAB2
:104BA00010B14FF0FF30CBE70020C9E72DE9F0430B
:104BB00085B005460E4690469946154890F8250062
:104BC00020B14FF0FF3005B0BDE8F08316B94FF0CB
:104BD000FF30F8E7002428E0281B102801DD102012
:104BE00000E0281B87B2321939462046FFF764FFE0
:104BF00010B14FF0FF30E6E701AA39462046FFF733
:104C000098FF38B14FF0FF30DDE7000070D90108A0
:104C10002800002030193A4601A909F099F810B18E
:104C20006FF00100CFE7E01984B2AC42D4DB4FEA69
:104C300028208DF8000008F0FF008DF80100F94AE7
:104C40001268917EF74A526810786B46022201F092
:104C500052FB10B14FF0FF30B5E70121F14880F869
:104C60002510A0F826900020ADE70146ED4890F809
:104C700024000870002070474FF0FF307047024654
:104C80004FF0FF30704701464FF0FF307047F8B5E6
:104C900005460F461446002C70D0B5F5FF5F01DDC8
:104CA000FF2605E0202D01DA012601E0C5F34716B5
:104CB00007B90127282C02DD4FF0FF30F8BDD94895
:104CC000407D28BBD74890F8240038B10020FFF77A
:104CD00023FE0121D34880F8201003E00021D148B1
:104CE00080F82010CF481630FFF731F8CD48183043
:104CF000FFF74DF8CB481A30FFF76DF8C9481C3064
:104D0000FFF78EF8C748817A81771F30FFF7EAF8FE
:104D10000020FEF741F90020FEF76AFC00208DF824
:104D20000000C04A12689178BE4A526810786B46FB
:104D3000012201F0E0FA10B14FF0FF30BEE7402051
:104D40008DF80000B74A1268D17BB64A52681078D5
:104D50006B46012201F0CFFA00B165E08DF80060EA
:104D60008DF80170AF4A1268117AAE4A5268107815
:104D70006B46022201F0BFFA08B155E047E005207A
:104D800003F063FDA748407A072101EBC000C0B2E1
:104D90008DF80000A34A1268D179A24A52681078AF
:104DA0006B46012201F0A7FA00B13DE020208DF80A
:104DB0000000012C03D100208DF801000EE0052C2D
:104DC00003DC01208DF8010008E0142C03DC022034
:104DD0008DF8010002E003208DF801009DF801002C
:104DE000072101EB8010C0B28DF801008D4A1268D6
:104DF000917C8C4A526810786B46022201F07BFA53
:104E000000B111E0012187484175002056E7854A2D
:104E10001632002103E0505C00B105E0491C0C296A
:104E2000F9D34FF0FF3049E7FF207E490872FF2198
:104E30007C484172C1724FF6FF71C181FF218172BE
:104E40000174012101730146887FFEF768F97549F5
:104E5000C88AFEF7C8FC7349087EFEF782FC7149D8
:104E6000488BFEF786FB6F49888BFEF72EFC6D4959
:104E7000C87FFEF749FB6B4890F8200010B1012075
:104E8000FFF74AFD002167484175002016E710B57D
:104E900088B002A905A8FFF784FD0446032C41D180
:104EA00001A8FEF7D3FF9DED050AB8EEC00ADDEDBF
:104EB000010A20EE200ABDEEC00A8DED050A9DED27
:104EC000060AB8EEC00ADDED010A20EE200ABDEEAA
:104ED000C00A8DED060A9DED070AB8EEC00ADDEDA9
:104EE000010A20EE200ABDEEC00A8DED070A05A8D2
:104EF00000F04DFA6846FEF7CEFFBDF800100298AC
:104F000048430290BDF80010039848430390BDF851
:104F1000001004984843049002A800F0CBFA002047
:104F200008B010BD0120FBE7014691F90020002ADE
:104F300001DD00201EE091F90020002A01DA0420A2
:104F400018E091F90120002A01DD012012E091F919
:104F50000120002A01DA05200CE091F90220002A44
:104F600001DD022006E091F90220002A01DA062084
:104F700000E00720704710B504462046FFF7D4FF35
:104F80000346E01CFFF7D0FF43EAC00083B2A01D38
:104F9000FFF7CAFF43EA801083B2184610BD70B510
:104FA000002401F0E3F9FEF760FC002845D17820E9
:104FB000FEF7B5F8C4B20CB1012070BD7820FEF741
:104FC000A3FAC4B20CB10220F7E76420FEF77DFB20
:104FD000C4B20CB10320F0E700F03EF9C4B20CB14A
:104FE0000420EAE71048FFF7C6FF054600F03EF947
:104FF000C4B20CB10520E0E740F2731000F087FD69
:10500000C4B20CB10620D8E7642000F0E9FAC4B2BB
:105010000CB10720D1E7FFF73AFF044634B108206E
:10502000CBE7000028000020540000200120FFF7FB
:1050300073FCC4B20CB10920BFE70020BDE770B516
:105040002DED0C8B8EB004460D461646B7EE000AC9
:10505000F0EE409A9FED7C0AB0EE408A9FED7A0A0E
:10506000F0EE408A9FED780AB0EE409A07A808A9B2
:105070000DAB03AACDE9001009A90BA800F0A6FE0C
:1050800020B101200EB0BDEC0C8B70BDBDF820002E
:1050900000F4807000287CD09DED030AB8EEC00AB1
:1050A000DFED6A0A80EE201AF0EE419A9DED040AC7
:1050B000B8EEC00ADFED650A80EE201AB0EE418A34
:1050C0009DED050AB8EEC00ADFED600A80EE201AF9
:1050D000F0EE418A9DED060AB8EEC00ADFED5B0AEC
:1050E00080EE201AB0EE419AB8EE000A28EE000ACF
:1050F00020EE090AF0EE000A69EEA00A00EEA80A06
:1051000010EE101A08460BF03BFC41EC1C0BB0EE05
:105110004C0AF0EE6C0A0AF0DBF9B0EE40BAF0EEA1
:1051200060BA9FED4B0B53EC102B51EC1B0B0BF0AB
:1051300067F941EC1A0B0AF019FF2060B8EE000A7B
:1051400028EE000A20EE080AF0EE000A68EEA00A37
:1051500000EEE80AF7EE000A30EE200A10EE101A10
:1051600008460BF00DFC41EC1C0BB0EE000A28EEDB
:10517000800A20EE090AF0EE000A69EEA00A00EEAD
:10518000880A10EE101A08460BF0FAFB41EC1D0BD2
:1051900000E054E0B0EE4C1AF0EE6C1AB0EE4D0A9E
:1051A000F0EE6D0A0AF0B0FCB0EE40BAF0EE60BA74
:1051B0009FED270B53EC102B51EC1B0B0BF020F940
:1051C00041EC1A0B0AF0D2FE286029EEA90A08EE7B
:1051D000080A08EEE80A09EE490A10EE101A084615
:1051E0000BF0CEFB41EC1C0B28EE280A09EE890AD5
:1051F000F0EE000A20EE200A10EE101A08460BF01E
:10520000BFFB41EC1D0BB0EE4C1AF0EE6C1AB0EE89
:105210004D0AF0EE6D0A0AF077FCB0EE40BAF0EEFF
:1052200060BA9FED0B0B53EC102B51EC1B0B0BF0EA
:10523000E7F841EC1A0B0AF099FE306001E0022019
:1052400020E700201EE70000000000000000804E64
:105250006666666666A64C4010B5C8234FF4806249
:10526000F74940F6F630FFF7A1FC10BD10B586B047
:105270000446F4A000680390F3A000680290F3A035
:1052800000680190F2A00068009004F0030003A9F8
:10529000085C8DF8140003A8C4F3C101405C8DF8CC
:1052A000150003A8C4F38111405C8DF8160004F0CA
:1052B000030002A9085C8DF8100002A8C4F3C10124
:1052C000405C8DF8110002A8C4F38111405C8DF898
:1052D000120005AA032140F22640FFF7EDFB18B1AA
:1052E0004FF0FF3006B010BD04AA032140F22A405F
:1052F000FFF7E2FB10B14FF0FF30F3E701980590A4
:105300000098049004F0040058B19DF8140040F097
:1053100001008DF814009DF8100040F001008DF898
:10532000100004F0200058B19DF8150040F0010075
:105330008DF815009DF8110040F001008DF8110066
:1053400004F4807058B19DF8160040F001008DF80B
:1053500016009DF8120040F001008DF8120005AA19
:1053600003214FF48860FFF7A7FB10B14FF0FF3027
:10537000B8E704AA032140F23140FFF79DFB10B1CA
:105380004FF0FF30AEE7B34804810020AAE71FB515
:105390000446B048007A00F0030054F82000019061
:1053A000AC48007A00F0040010B10198404201902E
:1053B000A848007AC0F3C10054F820000290A54824
:1053C000007A00F0200010B1029840420290A148FB
:1053D000007AC0F3811054F8200003909D480089A2
:1053E00000F4807010B10398404203909A490198EC
:1053F00080FB0101800F40EA8100019096490298EC
:1054000080FB0110820042EA917002909249039859
:1054100080FB0110820042EA917003900198000E17
:105420008DF800000198000C8DF801000198000A29
:105430008DF802000198C0B28DF803006A4604217D
:105440004FF47470FFF738FB18B14FF0FF3004B021
:1054500010BD0298000E8DF800000298000C8DF827
:1054600001000298000A8DF802000298C0B28DF87F
:1054700003006A4604214FF47570FFF71DFB10B15D
:105480004FF0FF30E3E70398000E8DF8000003981B
:10549000000C8DF801000398000A8DF802000398B3
:1054A000C0B28DF803006A4604214FF47670FFF70E
:1054B00003FBCCE770B588B0064601A8FEF7EBFC0D
:1054C000BDF804000021C90341EA5045C403614806
:1054D000007A00F0030056F8200005905D48007A3D
:1054E00000F0040010B10598404205905948007A38
:1054F000C0F3C10056F8200006905648007A00F02C
:10550000200010B10698404206905248007AC0F33D
:10551000811056F8200007904E48008900F48070F2
:1055200010B10798404207900598C117A0FB0423CB
:1055300001FB043100FB0510810041EA92700590E7
:105540000698C117A0FB042301FB043100FB0510E2
:10555000810041EA927006900798C117A0FB0423CE
:1055600001FB043100FB0510810041EA92700790B5
:105570000598000E8DF808000598000C8DF80900BC
:105580000598000A8DF80A000598C0B28DF80B0046
:105590000698000E8DF80C000698000C8DF80D0092
:1055A0000698000A8DF80E000698C0B28DF80F001C
:1055B0000798000E8DF810000798000C8DF8110068
:1055C0000798000A8DF812000798C0B28DF81300F2
:1055D00002AA0C214FF42570FFF76EFA08B070BDD7
:1055E00030B585B004461DA207CA02AB07C3C82C5C
:1055F00003DD4FF0FF3005B030BDC82090FBF4F064
:10560000401E85B2280A8DF80000E8B28DF801002E
:105610006A46022140F21620FFF74EFA10B14FF011
:10562000FF30E8E702AA0C2140F6C120FFF744FA58
:1056300010B14FF0FF30DEE7064884810020DAE742
:1056400098D901084CCD6C000CC92C003656760058
:10565000264666002805002009E3CA02FEF2ABC414
:10566000AAF1DFDFBBAFDFDF0146F94880890880A0
:1056700000207047F0B52DED028B83B006460F4633
:1056800006F0070010B1B7F5C86F05DD4FF0FF3029
:1056900003B0BDEC028BF0BD00EE107AB8EE400A0C
:1056A000DFEDEC0A80EE208A01A8FEF770FB9DF882
:1056B0000400022806D0042817D0082828D0102873
:1056C0004CD138E09FEDE40A28EE000ABCEEC00A97
:1056D00010EE100A84B29FEDE10A28EE000ABCEE3B
:1056E000C00A10EE100A85B23BE09FEDDD0A28EEFD
:1056F000000ABCEEC00A10EE100A84B29FEDD90A6F
:1057000028EE000ABCEEC00A10EE100A85B228E0AE
:105710009FEDD50A28EE000ABCEEC00A10EE100A72
:1057200084B29FEDD20A28EE000ABCEEC00A10EE49
:10573000100A85B215E09FEDCE0A28EE000ABCEEF5
:10574000C00A10EE100A84B29FEDCA0A28EE000AC1
:10575000BCEEC00A10EE100A85B202E04FF0FF3036
:1057600096E700BF20128DF80800E0B28DF809001E
:1057700028128DF80A00E8B28DF80B0006F001003F
:10578000A0B102AA02214FF4EA70FFF795F910B117
:105790004FF0FF307CE70DF10A0202214FF49270C6
:1057A000FFF78AF910B14FF0FF3071E706F0020001
:1057B000A0B102AA02214FF4EC70FFF77DF910B1FD
:1057C0004FF0FF3064E70DF10A0202214FF49470AC
:1057D000FFF772F910B14FF0FF3059E706F00400FF
:1057E000A0B102AA02214FF4EE70FFF765F910B1E3
:1057F0004FF0FF304CE70DF10A0202214FF4967092
:10580000FFF75AF910B14FF0FF3041E700203FE7B2
:1058100038B504460020009004F0010020B19DF846
:10582000000040F03000009004F0020020B19DF82C
:10583000000040F00C00009004F0040020B19DF83E
:10584000000040F0030000906A4601214FF4A4706C
:10585000FFF732F938BD38B50446012C01DA0124CE
:1058600002E0042C00DD0424601EC0B200906A46F1
:10587000012140F24F10FFF71FF938BD38B504463B
:10588000052094FBF0F085B228128DF80000E8B2F4
:105890008DF801006A4602214FF4EF70FFF70CF912
:1058A00038BD38B50446052094FBF0F085B22812C7
:1058B0008DF80000E8B28DF801006A4602214FF42D
:1058C000ED70FFF7F9F838BDF8B505460E464FF410
:1058D0007A7095FBF0F000FB06F4200E8DF80000C6
:1058E000200C8DF80100200A8DF80200E0B28DF83E
:1058F00003006A4604214FF4AE70FFF7DDF8F8BDEF
:1059000038B50446052094FBF0F084B220128DF8DF
:105910000000E0B28DF801006A4602214FF4AD703C
:10592000FFF7CAF838BD38B50446052094FBF0F0FF
:1059300084B220128DF80000E0B28DF801006A46B2
:1059400002214FF4AC70FFF7B7F838BD38B5044604
:1059500014B94FF0FF3038BD6A4604214FF4587037
:10596000FFF7E7F810B14FF0FF30F4E79DF80000C3
:1059700000069DF8011040EA01409DF8021040EA3F
:1059800001209DF80310084320600020E3E738B5AC
:105990000446200E8DF80000200C8DF80100200A2E
:1059A0008DF80200E0B28DF803006A4604214FF43E
:1059B0005870FFF781F838BD38B5044614B94FF078
:1059C000FF3038BD6A4604214FF47170FFF7B1F81B
:1059D00010B14FF0FF30F4E79DF8000000069DF88D
:1059E000011040EA01409DF8021040EA01209DF8B4
:1059F0000310084300EB8000800020600020E0E7F7
:105A000038B504461420B4FBF0F4200E8DF80000E5
:105A1000200C8DF80100200A8DF80200E0B28DF80C
:105A200003006A4604214FF47170FFF745F838BD52
:105A300038B5044604B320208DF8000028208DF8E6
:105A4000010030208DF8020038208DF8030018E0A6
:105A50002805002000004843000080460000404622
:105A6000000000460000C0450000804500004045A1
:105A7000000000450000C044A3220421684608F04D
:105A800093F96A46042140F69E20FFF715F8FDF7CA
:105A90004FFC38BD38B5044664B1C0208DF8000015
:105AA000C2208DF80100C4208DF80200C6208DF8B8
:105AB000030004E08B220421684608F075F96A4669
:105AC000042140F69820FEF7F7FFFDF731FC38BDC2
:105AD0003EB504466CB1FDA1D1E900208968CDE94D
